F0010000000000010000000000000000000000000000000000000000001000GUANTES NO ESTERIL PAR                            C000000001840000000000000000000000000010010000000000000002000000000000000000000000000000
F0010000000000020000000000000000000000000000000000000000001000MASCARILLA DESECHABLE                             C000000001200000000000000000000000000010010000000000000002000000000000000000000000000000
F0010000000000030000000000000000000000000000000000000000001000GUANTES NO ESTERIL PAR                            C000000002448000000000000000000000000010010000000000000003000000000000000000000000000000
F0010000000000040000000000000000000000000000000000000000001000MASCARILLA DESECHABLE                             C000000001530000000000000000000000000010010000000000000003000000000000000000000000000000
F0010000000000050000000000000000000000000000000000000000001000GUANTES NO ESTERIL PAR                            C000000002448000000000000000000000000010010000000000000003000000000000000000000000000000
F0010000000000060000000000000000000000000000000000000000001000MASCARILLA DESECHABLE                             C000000001530000000000000000000000000010010000000000000003000000000000000000000000000000
F0010000000000070000000000000000000000000000000000000000001000GUANTES NO ESTERIL PAR                            C000000002448000000000000000000000000010010000000000000003000000000000000000000000000000
F0010000000000080000000000000000000000000000000000000000001000MASCARILLA DESECHABLE                             C000000001530000000000000000000000000010010000000000000003000000000000000000000000000000
F0010000000000090000000000000000000000000000000000000000001000GUANTES NO ESTERIL PAR                            C000000002448000000000000000000000000010010000000000000003000000000000000000000000000000
F0010000000000100000000000000000000000000000000000000000001000MASCARILLA DESECHABLE                             C000000001530000000000000000000000000010010000000000000003000000000000000000000000000000
F0010000000000110000000000000000000000000000000000000000001000GUANTES NO ESTERIL PAR                            C000000002448000000000000000000000000010010000000000000003000000000000000000000000000000
F0010000000000120000000000000000000000000000000000000000001000MASCARILLA DESECHABLE                             C000000001530000000000000000000000000010010000000000000003000000000000000000000000000000
F0010000000000130000000000000000000000000000000000000000001000GUANTES NO ESTERIL PAR                            C000000001224000000000000000000000000010010000000000000001500000000000000000000000000000
F0010000000000140000000000000000000000000000000000000000001000MASCARILLA DESECHABLE                             C000000000765000000000000000000000000010010000000000000001500000000000000000000000000000
F0010000000000150000000000000000000000000000000000000000001000GUANTES NO ESTERIL PAR                            C000000002448000000000000000000000000010010000000000000003000000000000000000000000000000
F0010000000000160000000000000000000000000000000000000000001000ESPARADRAPO  MICRO A/ALERG PIEL 2                 C000000002460000000000000000000000000010010000000000000000200000000000000000000000000000
F0010000000000170000000000000000000000000000000000000000001000CLORURO DE SODIO AL 9% 500ML                      C000000003960000000000000000000000000010010000000000000000600000000000000000000000000000
F0010000000000180000000000000000000000000000000000000000001000GASA ESTERIL PAQ X 5                              C000000060300000000000000000000000000010010000000000000009000000000000000000000000000000
F0010000000000190000000000000000000000000000000000000000001000MASCARILLA DESECHABLE                             C000000001530000000000000000000000000010010000000000000003000000000000000000000000000000
F0010000000000200000000000000000000000000000000000000000001000SONDA FOLEY NO18                                  C000000001876800000000000000000000000010010000000000000000400000000000000000000000000000
F0010000000000210000000000000000000000000000000000000000001000CYSTOFLO BOLSA                                    C000000007752000000000000000000000000010010000000000000000400000000000000000000000000000
F0010000000000220000000000000000000000000000000000000000001000GASA ESTERIL PAQ X 5                              C000000002680000000000000000000000000010010000000000000000400000000000000000000000000000
F0010000000000230000000000000000000000000000000000000000001000GUANTES ESTERIL                                   C000000000775200000000000000000000000010010000000000000000400000000000000000000000000000
F0010000000000240000000000000000000000000000000000000000001000GUANTES NO ESTERIL PAR                            C000000000326400000000000000000000000010010000000000000000400000000000000000000000000000
F0010000000000250000000000000000000000000000000000000000001000CLORURO DE SODIO AL 9% 500ML                      C000000002640000000000000000000000000010010000000000000000400000000000000000000000000000
F0010000000000260000000000000000000000000000000000000000001000JERINGA DE 10ML                                   C000000000204000000000000000000000000010010000000000000000400000000000000000000000000000
F0010000000000270000000000000000130505000000000000000000001000                                                  D000000111871400000000000000000000000010010000000000000000000000F0010000000027000100
